:020000021000EC
:1080000000800020A5AC0100EDAC0100EFAC010048
:108010000000000000000000000000000000000060
:10802000000000000000000000000000F1AC0100B2
:108030000000000000000000F3AC0100F5AC0100FE
:10804000F7AC0100F7AC0100F7AC0100F7AC0100A0
:10805000F7AC010000000000F7AC0100F7AC010034
:10806000F7AC0100F7AC0100F7AC0100F7AC010080
:10807000F7AC0100F7AC0100F7AC0100F7AC010070
:10808000F7AC0100418F0100F7AC0100F7AC010033
:1080900021900100F7AC0100C1AB0100F7AC010079
:1080A000F7AC0100F7AC0100000000000000000088
:1080B00000000000000000000000000000000000C0
:1080C000164B002B00D1144B9D46402292029A1A67
:1080D000924600218B460F461348144A121A00F0AC
:1080E00067F80F4B002B00D098470E4B002B00D0A9
:1080F00098470020002104000D000D48002802D000
:108100000C4800E000BF00F02DF82000290000F02E
:10811000F1F900F011F8C0460000080000800020CE
:1081200000000000000000006820002074280020EB
:108130000000000000000000084B10B5041C002BDC
:1081400002D0002100E000BF054B1868836A002BB5
:1081500000D09847201C00F033F8C0460000000013
:1081600058AE01000E4B70B500251E1C0D4CE41AD4
:10817000A410A54204D0AB00F35898470135F8E7A6
:1081800002F05CFE084B00251E1C084CE41AA410EB
:10819000A54204D0AB00F35898470135F8E770BD0D
:1081A000682000206820002068200020682000202F
:1081B000031C8218934202D019700133FAE770470A
:1081C000FEE7C0463CDF704748DF7047031CA02233
:1081D0000321C133FF33D2059B0099500123834013
:1081E000181C014BD05070470C050000A0230C2236
:1081F000C130FF308000DB05C2507047031CA02255
:108200000C21C133FF33D2059B009950A223DB0020
:10821000D358C340181C0123184070470138C0468A
:10822000C046C046C046C046C046C046C046C0461E
:10823000C046C046C046F1D17047C04638B5A024FC
:108240008025A1236D03E405DB00E550322001F019
:1082500079FA014BE55038BD0C050000F0B589B046
:108260001C490622684602F0D9FD1B4C201C00F078
:1082700053FD80B2002802D001235B42238000F02E
:1082800003FE164DA127288000F00EFE02A902234E
:108290004C604D61A0248025114A0B80CA600B817F
:1082A0000B82E405AD031080FF0003220D4E6846EB
:1082B00000F08EFAE551282001F044FAA55128205B
:1082C00001F040FAE551282001F03CFAA55109B02F
:1082D000F0BDC0465CAE01006E280020602000208A
:1082E0006C2800200C050000F0B5474680B482B031
:1082F0000190022809D004281FD0012835D0482831
:108300004BD002B004BC9046F0BDA024A12780252C
:10831000E405ED03FF002E4EE551943001F012FA12
:10832000A551962001F00EFAE551962001F00AFAC7
:10833000A551962001F006FAE3E7A1238026A025A7
:10834000DB00F60304249846371CED0543469620CF
:10835000EF5001F0F7F91E4B013CEE509620E4B2CD
:1083600001F0F0F9002CF1D1CBE7A1238026A02564
:10837000DB00F60306249846371CED05434696209D
:10838000EF5001F0DFF9124B013CEE509620E4B2C1
:1083900001F0D8F9002CF1D1B3E7A026A1270824D9
:1083A000F605FF00802501A90222ED03094800F02F
:1083B00059FA9620F55101F0C5F9054B013CF550ED
:1083C0009620E4B201F0BEF9002CEBD199E7C0464B
:1083D0000C050000ADDE000000B5FF2087B01021C5
:1083E000384A002301F040F8002867D136480121BF
:1083F000364A01F0ABF800285DD135480121354AF5
:1084000001F0A4F8002801D0FFF76EFFA023EA21B5
:108410000322DB05C9005A502F495A5004315A50E3
:1084200080212E4AC9039950802149039950802107
:108430008903995000F0A4FA002839D100F072FAAB
:10844000002832D100F02AFA00282BD100F0C0FA1F
:10845000002824D122484021002201F091F8002870
:1084600001D0FFF741FF1C2301A843701D4B03619E
:108470001D4B43601D4B83601D4BC36000F0DAFA57
:10848000002801D0FFF730FF7F2000F01FFC0028FC
:1084900001D0FFF729FF00F0E9FC07B000BDFFF7AE
:1084A00023FFD7E7FFF720FFD0E7FFF71DFFC9E75E
:1084B000FFF71AFFC2E7FFF717FF9EE7FFF714FF6A
:1084C00094E7C046A820002064AE01005D82010050
:1084D00068AE01003D820100540700000C05000059
:1084E000882000201D820100CD810100ED81010066
:1084F000FD810100F0B5474680B482B0FFF76CFF04
:10850000032001F0E7FF002801D0FFF7EDFE8025F2
:10851000ED032E1CFFF758FE0028FBD00190022827
:108520001FD0042835D0012848D04828F2D1A123F3
:10853000A027DB0008249846FF0501A902222A484B
:1085400000F090F943469620FD5001F0FBF8274BD0
:10855000013CFD509620E4B201F0F4F8002CECD17F
:10856000D8E7A123A024DB009846E4051F4FE5507F
:10857000943001F0E7F8E551962001F0E3F8434626
:108580009620E55001F0DEF8E551962001F0DAF88A
:10859000C0E7A123A027DB0004249846FF0543463B
:1085A0009620FE5001F0CEF8104B013CFD50962075
:1085B000E4B201F0C7F8002CF1D1ABE7A123A0276A
:1085C000DB0006249846FF0543469620FE5001F046
:1085D000B9F8064B013CFD509620E4B201F0B2F828
:1085E000002CF1D196E7C046ADDE00000C0500007E
:1085F00008B5032807D1802105484900002200F072
:10860000BFFF002800D108BDFFF76EFEFBE7C046A4
:108610006820002008B50388112B26D0192B14D010
:10862000102B00D008BD8288194B80211A80A1230D
:10863000A0228903DB00D205D150164801F01EF8B4
:108640000028EFD0FFF750FEECE7124801F016F8D3
:1086500000281AD1E823A0220F49DB00D205D1500F
:10866000FFF7B0FD0028DDD0ECE70122084B5242B5
:108670001A808021A022094B8903D205D150032002
:1086800001F028FF0028CDD0DCE7FFF72DFEE1E761
:1086900070280020682000200C0003000C0500005A
:1086A000F0B54F464646C0B483B001900D1C022879
:1086B00019D0042831D0012848D048285FD0002D97
:1086C00004D103B00CBC90469946F0BDE823A0222B
:1086D0003949DB00D205D150FFF774FD0028F0D0F6
:1086E000FFF702FEEDE7A123A0248026DB009846D9
:1086F000E405F603314FE650943001F023F8E651DB
:10870000962001F01FF843469620E65001F01AF833
:10871000E651962001F016F8D1E7A1238027A02684
:10872000DB00FF0304249946B846F6054B46424653
:108730009620F25001F006F8204B013CF7509620AD
:10874000E4B200F0FFFF002CF0D1B8E7A1238027AE
:10875000A026DB00FF0306249946B846F6054B46E3
:1087600042469620F25000F0EDFF144B013CF750CA
:108770009620E4B200F0E6FF002CF0D19FE7A123A1
:10878000A027DB0008249846FF0501A902220C4817
:10879000802600F067F84346F603FE50962000F06E
:1087A000D1FF064B013CFE509620E4B200F0CAFF18
:1087B000002CEAD183E7C0460C0003000C05000042
:1087C000ADDE00007ADF70477CDF704760DF704706
:1087D000F0B59FB0002A39D00C1C03880FAD2B8058
:1087E00010ABC0CCC0C3012A33D04388AB8113ABDC
:1087F000C0CCC0C3022A2ED083882B8316ABC0CC3A
:10880000C0C3032A29D0C388AB8419ABC0CCC0C372
:10881000042A24D00526038920312B861CAB05C9E8
:1088200005C301AC3822201C0021FFF7C1FC022344
:1088300023700023A3700633E370201C263300212D
:10884000A562E65401F01CFB1FB0F0BD00260FAD81
:10885000E7E70126E5E70226E3E70326E1E704264A
:10886000DFE7C04630B593B004AC01AD2880AA80E4
:108870000391201C00213822FFF79AFC0223237069
:1088800000230122A3700633E370201C263300214D
:10889000A562E25401F0F4FA13B030BDF0B5AFB008
:1088A00005AA111C1B4B02AF31CB31C11B7812AE94
:1088B0000B70194B04923B800D23301C0021382291
:1088C000BB80FFF775FC0223002420AD38223370F3
:1088D000281C04330021F370B470FFF769FC0123F6
:1088E0002B820E4B09AA6B610123D460137364239E
:1088F0001361143353616F62546094609461D46166
:108900001462301C0094291C054B099401F03EFDB3
:108910002FB0F0BD6CAE0100ADDEFFFF6420002083
:10892000F18501000F21012230B585B001AC23781B
:10893000124D8B43134310220B401343281C23700A
:1089400002F075FA291C82B2201CFFF73DFF041EBD
:1089500010D102AD00210822281CFFF729FC50236A
:108960002B8050336B80281CF033AC80EB80FFF7FA
:1089700029FF041C201C05B030BDC0467CAE0100A0
:1089800000B5082083B010494822002302F0E8F81F
:10899000002814D1082268460021FFF709FC6B4625
:1089A00001221B78684693436A461370FFF70EFF57
:1089B000002802D1054802F0F9F803B000BD0021FB
:1089C0000022FFF76DFEE5E788250020158A0100EB
:1089D00010B588B001AC0021201C1C22FFF7E8FB79
:1089E000A02292006260F02200231201A260032202
:1089F0000193E3812374054B201C6361044B2273B4
:108A0000A36101F04FFF08B010BDC046318A0100DC
:108A1000258A010010B5041C01F080FF201CFFF71F
:108A2000F9FD10BD08B500210022FFF739FE08BD91
:108A30007047C046002310B50F4C2370002819D092
:108A4000437863704368002B14D063608368002B05
:108A500010D0A360C368002B0CD0E3600369002B27
:108A600008D02361A3686078C0B298470123002032
:108A7000237000E0042010BDD0250020F8B50025AB
:108A8000CC270126174C3B1C2B411E4217D02378C4
:108A9000002B01D10220F8BD63686078C0B298470E
:108AA000236906209847A3686078C0B29847236975
:108AB000402098470135082DE5D10020EBE72378C9
:108AC000002BE7D063686078C0B2984723693C20E8
:108AD0009847A3686078C0B2984723690A209847EE
:108AE000E8E7C046D0250020F0B5474680B400290D
:108AF00039D04B1E9BB29846061C00251B4C804467
:108B0000082700235B081A1C33702378002B06D13A
:108B10000220ED012A43327004BC9046F0BD636828
:108B20006078013FC0B29847236906209847A36840
:108B30006078FFB2C0B2984723690A209847E3687B
:108B40006078C0B29847051C23692C209847337879
:108B5000EA011343DBB23370002FD3D10020464526
:108B6000DAD00136CCE70020D6E7C046D025002079
:108B7000F8B5071C00250126174C3B1C2B411E4253
:108B800017D02378002B01D10220F8BD63686078EC
:108B9000C0B29847236906209847A3686078C0B29E
:108BA00098472369402098470135082DE5D10020DA
:108BB000EBE72378002BE7D063686078C0B2984772
:108BC00023693C209847A3686078C0B2984723691E
:108BD0000A209847E8E7C046D0250020F0B5474670
:108BE000061C80B43320FFF7C3FF002802D004BC6A
:108BF0009046F0BDF31D98460025194C0827002328
:108C00005B081A1C33702378002B04D1ED012A4332
:108C100032700220EBE763686078013FC0B298478A
:108C2000236906209847A3686078FFB2C0B29847CE
:108C300023690A209847E3686078C0B29847051C0A
:108C400023692C2098473378EA011343DBB2337051
:108C5000002FD5D1464501D00136CFE70020C6E729
:108C6000D025002038B5114C02202378002B00D1EC
:108C700038BD63686078C0B29847F020236940002F
:108C80009847A3686078C0B2984723694620984700
:108C9000E3686078C0B29847051CCD202369400086
:108CA0009847681E8541E8B2E2E7C046D02500201B
:108CB00008B5054A02231178002901D1181C08BD06
:108CC000136998470023F9E7D025002010B582B03A
:108CD000041CFFF7C7FF002801D002B010BD684692
:108CE000FFF77CFF6B461B784820282BF5D1FFF758
:108CF000B9FF0028F1D1FFF7C1FE4E20FFF738FF82
:108D00000020FFF735FF0020FFF732FF201CFFF7A0
:108D10002FFF0020E1E7C046F0B54F46464600234E
:108D2000C0B4038085B08146FFF79CFF061E05D0C6
:108D3000301C05B00CBC90469946F0BD01AC201C1F
:108D4000FFF74CFF23784836282BF1D1FFF78AFF35
:108D5000FFF794FE4420FFF70BFF4348FFF7A8FFFF
:108D6000FFF780FFFFF78AFEBE20FFF701FF092112
:108D7000201CFFF7B9FE7421002600230120494280
:108D800044E05510DFB26B400D1C7F087D40EDB212
:108D9000A8463D1C184264D19310EFB26B400D1CE5
:108DA0007F087D40EDB2184259D1D510FBB26F401B
:108DB0000D1C5B085D40EDB238424ED11511DFB29B
:108DC0006B400D1C7F087D40EDB2184243D1551118
:108DD000FBB26F400D1C5B085D40EDB2384238D1EC
:108DE0009511DFB26B400D1C7F087D40EDB218423B
:108DF0002DD1D211FBB27A400F1C5B085F40FFB24D
:108E000010420ED10136DBB2092E0FD0A25D0F1C2D
:108E1000151C5D405B085F40FFB22842B1D03B1C8F
:108E2000AFE73B1C0136DBB2092EEFD15A1E93414E
:108E300040365B421E40FFF715FF4A4663781288B2
:108E40001B021343227813434A46138070E72F1CFA
:108E5000CFE72B1CC4E72F1CB9E72B1CAEE72F1C58
:108E6000A3E7454698E7C046A0BB0D0010B582B009
:108E70006A46044B684612CB12C201F0BBFE02B038
:108E800010BDC04688AE010038B53224002504204C
:108E900001F0DCFE013C2D18002CF8D1281C3221F9
:108EA00001F02AFF80B238BD38B5322400254020B9
:108EB00001F0CCFE013C2D18002CF8D1281C3221E9
:108EC00001F01AFF80B238BD80218023184A890240
:108ED000D1508022D221174B520289005A5040397A
:108EE0005A5001222F205A600138C046C046C04661
:108EF000C046C046C046C046C046C046C046C04642
:108F0000C046F1D19A6000230B4A2F20136001382C
:108F1000C046C046C046C046C046C046C046C04621
:108F2000C046C046C046C046F1D1044A13707047DF
:108F300000E100E000100140E425002004260020AC
:108F4000A021F0B5002347462C4A490080B4535075
:108F50000431535004315350043153504C39535061
:108F600004315350264B1B68002B37D0254900266F
:108F700052582549254F0C68141B00222402240A4C
:108F8000904602E0002D1AD02B1C1A68A24216D877
:108F9000A41AB6181A7CDD69002AF3D042469969F2
:108FA0001A745A693B68002B1BD0101C9847002884
:108FB000E8D000210022FFF773FB002DE4D1144B11
:108FC00014491A780B789A420ED0134A9B009E508F
:108FD00080218023114A49035B00D15004BC904694
:108FE000F0BD081C9047CDE70132D3B2022B01D06F
:108FF0000B70EAE700230B70E7E7C0460010014062
:10900000E825002004050000E4250020EC250020D0
:10901000F8250020F9250020FC25002000E100E0D3
:10902000F0B55F4656464D464446F0B4B44BB54A9B
:109030001B68B54989B0019309781378994200D12A
:10904000B1E10133DBB2022B00D100231370AF4A30
:109050009B009B58AA4A9946019B4B441B021B0A42
:10906000136001230493AA4B00241B689B46A94B61
:10907000D8461B781A1C0293A74B944607931B688B
:1090800003939F4B1B680693A44B1B7805935B4689
:109090006646013EF2B29446FF2A4FD06246D000A7
:1090A000039A9246504401784578A942F0D04A008C
:1090B0005218877801314668C9B27F1AB2467E1EBF
:1090C000B741D2007F42524439401778022F0AD06C
:1090D000032FEAD1002BE8D01C74DB69002BFBD1F5
:1090E00045789846E1E75668002B25D09E421AD075
:1090F0001F1C00E0171CFA69002AD6D09642F9D14D
:10910000321C3D1CBE4200D1EBE01768D269EA6117
:10911000002A06D013689A4657441760457843469C
:10912000C3E74578C1E7DE691A1C002E00D1DDE0F7
:10913000B046331C151CE8E70023B6E76946774ABA
:10914000097D181C11706E4A0699039311604146FF
:109150006F4A1160049A002A00D028E15B461B1A6E
:109160005A1E93410025DBB20493079B00271B681E
:10917000039E0693624B1B689C46654B1B689A4690
:10918000664B1B780593664B019301239846029B1F
:10919000013BDBB20293FF2B00D18FE0069ADB008C
:1091A00093469B44002D27D06968AB68281CED6965
:1091B0006246019C8A1A1202120AA24250D8D3189F
:1091C00042460360476087600274C761002E56D034
:1091D0003168341C994204D35FE01168994263D22C
:1091E000141CE2695B1A002AF7D10360331CC261C8
:1091F000E0611E1C002DD7D15B465A461B78527881
:109200009A42C4D0594649685A0089465946D218EC
:109210000133DBB20B708978D2004A4499424AD0BC
:1092200011785068331C0129E3D1037C99464946E3
:10923000331C0029DDD191684160D36883601469D3
:10924000C46052698261059A002AB1D04A46002161
:1092500042606246019C8A1A1202120AA242AED9E8
:109260006246511A0902090A99420CD242465B1A17
:109270000360476087600274C761002EA8D1031C99
:1092800082461E1CB6E7434607604760876003744A
:10929000C761002EF3D000233168CB1A3360031C62
:1092A000C66182461E1CA5E7C91A11600360C2612F
:1092B000331CE0619DE75B461D70B1E75246144BDD
:1092C0001A60039BB3422FD1049B002B2CD10023A7
:1092D000124A137009B03CBC90469946A246AB4670
:1092E000F0BDDE693A1C002E00D021E701250D4BB0
:1092F0009D600023069601369846151C059604E7E6
:10930000E4250020F8250020F9250020FC25002078
:10931000E8250020F0250020F4250020FA25002073
:10932000FEFF7F0000100140002E63D0484B4949EA
:109330003568CC58484B494E1B683078E21A120207
:10934000120A03329046002861D04246AA4200D257
:109350002A1CA820D21812023E49130AC0003C4D14
:109360000B504A591B1B121B1202120A1B0203321A
:109370001B0A9A42ABD94B590B502F200138C046DB
:10938000C046C046C046C046C046C046C046C046AD
:10939000C046C046C046F1D180218023304A8902B0
:1093A0005B00D15093E70023994604935BE60025C8
:1093B000002100244846464613E01A6882421CD821
:1093C000DE68801A89181C60DF69002E07D0DD6115
:1093D0001D1C019A9E608A181202120A5A603B1CD8
:1093E0003E1C002BE9D11F4B1E6000230393013369
:1093F0000493BAE6FFF768FD69E7814619490393CC
:109400000E604946521A1A6001230493ADE680208B
:10941000D1274002BF00C851403FC851C022802719
:109420000F48BF0252008750076001272F200F60AE
:109430000138C046C046C046C046C046C046C046C9
:10944000C046C046C046C046C046F1D137707CE732
:109450000405000000100140E4250020042600203F
:1094600000E100E0E8250020F8B54F464646C0B4CC
:109470000326351C80460F1C141C994615400720F6
:10948000002D03D00CBC90469946F8BD002A44D06C
:10949000FFF71AFD4A46224B80201A60221C214BFE
:1094A00018321E70204B62601C607B00DB19DB00F1
:1094B000D218E260D318C022636125706570A7706E
:1094C00025726572A77225746574A774C524FF217F
:1094D000164B40031D60164B52001D70154BA40027
:1094E0001D70154B98501A598A433F390A431A5137
:1094F000A122186040461149D2008850C420800043
:109500001C580F4A2240C024240222431A500D4BFB
:109510000020CA580C4B1A60B4E7034B1A60B1E73D
:10952000EC250020F0250020F4250020E82500206F
:10953000F8250020F925002000E100E0001001409E
:10954000FF00FFFF04050000E425002010B50B4BD1
:109550001B68002B0BD0002A07D0002805D0036819
:1095600008201C7C002C04D010BD0720FCE708203C
:10957000FAE759745A610020F6E7C046F425002046
:10958000F0B5474680B4374B1C68002C08D0002843
:1095900006D00723042905D8181C04BC9046F0BD4A
:1095A0000823F9E74369002BFAD00025437CA8463D
:1095B000012B2ED02C4B10255B68DB05DB0D2CD14D
:1095C00064196378A5785E1CF6B2AD1B6F1EBD41B1
:1095D0006D422E402578B5421DD05D00EB186568C0
:1095E000DB00ED180423002DD6D0033B2B70686000
:1095F0001E4B1F48C358E960AB60434680212B6176
:1096000080236A611B4A5B0049036670D1500023C6
:10961000C2E78846CEE70423BEE7103BDEB275B250
:10962000002D13DBAD08134EC035AD00AD59032638
:109630003340DB00DD402B069B0FDBB20025012B06
:10964000BED00835032BBBD00835B9E70F230A4D30
:109650003340AC46083B9B089B0063445D68032392
:10966000E6E7C046F425002000ED00E00405000018
:109670000010014000E100E018ED00E030B52D4A97
:10968000031C12680820002A2DD0002B2BD059690A
:10969000002928D000211974274910254968C905D7
:1096A000C90D23D155196A78A978541CE4B2091B55
:1096B000481E814149420C402978A14214D05100F2
:1096C0008A186968D2008C4662440420002A0AD0B5
:1096D000022153601170802380210020174A490322
:1096E0005B006C70D15030BD0420FCE71039CCB267
:1096F00060B2002813DB8008104CC0308000005995
:1097000003242140C900C8400106890FC9B20025C1
:109710000129C7D008350329C4D00835C2E70F2175
:10972000074821408446083989088900614448680F
:109730000321E6E7F425002000ED00E000E100E071
:1097400018ED00E082B00190019B002B14D0019B2A
:109750000A48013B01930138C046C046C046C04696
:10976000C046C046C046C046C046C046C046C046C9
:10977000F1D1019B002BEAD102B07047E703000052
:10978000074B1A680823520701D4181C7047002899
:1097900004D0044B5B7803600023F6E70E23F4E764
:1097A000D42600200826002071DF704772DF704742
:1097B00079DF70477DDF704765DF7047F0B504885B
:1097C000051C83B00720012C04D01488A01C9842EB
:1097D00002D90C2003B0F0BD2E78012E04D16E7892
:1097E00002363619B342F4D3023B1C1B6B460F1CE6
:1097F000A4B20818991D161CDC80FFF7DBFF0028B7
:10980000E8D12B78022B18D0012B11D0231C082172
:10981000FE2BDED83288581CB85432880020013222
:1098200092B23280B954328801329B183380D1E72A
:109830006B789C42EBD2231CE9E76B46DB8809215D
:109840009C42E5D2231CE2E7F0B55F46564644460B
:109850004D46F0B485B09A460EAB80CB061C1B88F3
:1098600000919B463B88904601930388002B5BD078
:109870000023994602AB0024DD1C03E03388013449
:10988000A3422ADD7368A1009C460422614403A818
:1098900001F0C4FA03A8291C0022FFF78DFF00285D
:1098A00026D12B784345E9D14B46002B27D04346A0
:1098B0003A88D3185B4539DC524403A8291CFFF7CA
:1098C0007BFF002814D13B882A780134D3183B80D1
:1098D000012399463388A342D4DC4B46002B23D086
:1098E0003B88019A013B9B1A9BB20C20FF2B18D995
:1098F00005B03CBC90469946A246AB46F0BD4246F8
:109900003B889A1802325A4510DC694652460133A8
:1099100009789BB23B80D1543A88013292B23A80A6
:10992000CAE7111C524653540020E1E70C20DFE740
:10993000F0B55F4656464D464446031C0020F0B441
:1099400017881080586B87B0002800D16FE1047829
:10995000022F18D90220112508701088013080B21A
:1099600010800D541088013080B210800C5414887F
:109970000134A4B21480186B002800D177E0251CB4
:109980001235BD4207D90C2007B03CBC9046994621
:10999000A246AB46F0BD11250D551488013D01349A
:1099A000A4B214800D5514880134A4B21480C57B70
:1099B0000D5514880134A4B21480857B0D5514888C
:1099C0000134A4B21480457B0D5514880134A4B22F
:1099D0001480057B0D5514880134A4B21480C57A17
:1099E0000D5514880134A4B21480857A0D5514885D
:1099F0000134A4B21480457A0D5514880134A4B200
:109A00001480057A0D5514880134A4B21480C579E8
:109A10000D5514880134A4B2148085790D5514882D
:109A20000134A4B2148045790D5514880134A4B2D0
:109A3000148005790D5514880134A4B21480C578BA
:109A40000D5514880134A4B2148085780D551488FE
:109A50000134A4B2148045780D5514880134A4B2A1
:109A600014800078085514880134A4B214802E2084
:109A70001D5C002D00D0DCE01E1C2D23F35C151CAA
:109A80008846002B00D0F7E0B378002B00D024E10B
:109A9000F378002B16D0E21CBA4200D973E70222F9
:109AA000414640460A5501212A88013292B22A8055
:109AB00081542A88013292B22A8083542C8801343E
:109AC000A4B22C807368002B16D01A78E31CBB421A
:109AD00000D958E70223414640460B550A212B88FE
:109AE00001339BB22B80C1542B8801339BB22B8056
:109AF000C2542B8801332B803389002B00D010E116
:109B0000338A002B00D076E1338B002B00D08BE121
:109B1000336A002B4AD02A880C20911DB94200D903
:109B200032E7198805388B46052900D82CE7CC4C3C
:109B30005C44A4B2A146CB4CA446A14500D823E77F
:109B40005C88A246052C00D81EE7C54C6946A14694
:109B5000D1444C46CC81CC89644500D814E7C24C32
:109B6000A34504D0A24502D0D34500D90CE7052176
:109B7000404681542A880D31013292B22A808154A4
:109B80002A88013292B22A80198842441170090A47
:109B900051702A88023292B22A805988131C434499
:109BA0001970090A59702B8802332B80746A002CB3
:109BB00032D0A2882988131D5B180C20BB4200D923
:109BC000E2E6931CFE2B00D9DEE6434603325A54EC
:109BD000FF2241462B8801339BB22B80CA542B882D
:109BE00001339BB22B80228843441A70120A5A70A8
:109BF0002B8802339BB22B80A288002A0CD0A1684C
:109C00000538002900D1BFE64344181C01F006F9CD
:109C10002A88A388D3182B802C23F35C002B00D038
:109C200098E03378002B00D0DEE00020ACE6002482
:109C3000A1E6E61C2238BE4200D9A5E602260E5552
:109C40001C241088013080B210800C541088013020
:109C500080B21080022D00D10FE100D806E1032D63
:109C600000D108E1042D00D0F7E003240C5414883F
:109C70000134A4B21480FFE609340C20BC4200D9A0
:109C800082E604A8FFF790FD002800D07CE641465C
:109C900008222B88CA542B88133201339BB22B80A5
:109CA000CA5402AB9C4609212888153A013080B27B
:109CB00028806144404401F0B1F82B8802AA0633A1
:109CC000127A9BB22B80002A00D001224146CA544E
:109CD0002C880134A4B22C80D6E604340C20BC427B
:109CE00000D951E604A8FFF763FD002800D04BE639
:109CF000032241462B88CA542B88163201339BB26B
:109D00002B80CA542B8802AA01339BB212892B8064
:109D100043441A70120A5A702C880234A4B22C8060
:109D2000B6E6341C083400950197201C022102225B
:109D30004346FFF789FD002800D025E600950197EE
:109D4000201C062110224346FFF77EFD002800D08C
:109D50001AE6D5E6B46A002C00D17EE0A38802336F
:109D6000FE2B00D90FE6002291461632924616329B
:109D7000288893460BE04B465C00B36A4C449C46F3
:109D8000A4006444A3880233FE2B00D9FBE54246BD
:109D90005146013313542B8801339BB22B80D1548D
:109DA0002B8801339BB22B80228843441A70120AFD
:109DB0005A702888023080B22880A288002A0AD0EF
:109DC000A168002949D0404401F028F82888A388D8
:109DD000C01880B228804B460133DBB299465B46FF
:109DE000F35C4B45C7D81CE7301C41462A1C3B1C82
:109DF000FFF7E4FCC8E5341C103400950197201CE3
:109E0000032102224346FFF71FFD002800D0BBE5D7
:109E100000950197201C072110224346FFF714FDEF
:109E2000002800D0B0E56FE6341C18340095019787
:109E3000201C142102224346FFF706FD002800D013
:109E4000A2E500950197201C152110224346FFF73B
:109E5000FBFC002800D097E55AE6072094E5C046B1
:109E60007FF3FFFF7DF30000FFFF0000012DF4D121
:109E700000240C54FBE60E54F9E601240C54F6E6DB
:109E8000F0B54E46574645461F23E0B496B002AAA9
:109E9000041C0E1CD381002800D171E0C3785B073D
:109EA00067D5002302AA9381436B002B00D13EE1CA
:109EB0001B78022206ADAB70032303270521042083
:109EC0002A700F326A7002AA9381226B002A3AD05C
:109ED000112306ADEB55013B2B54D37B6B54907B88
:109EE0004B1CE854507B8B1CE854107BCB1CE85473
:109EF000D07A0B1DE854907A4B1DE854507A8B1D94
:109F0000E854107ACB1DE854D0790133E8549079A5
:109F10000133E85450790133E85410790133E8549F
:109F2000D0780133E85490780133E854013302A823
:109F300083815078E854013302A883811278EA546F
:109F4000013383819BB22E22A25C002A00D0F1E172
:109F50002D22A25C002A00D011E1A278002A00D0B4
:109F60003DE1E278002A35D0D91C1F2925D90C20E3
:109F700000E0072016B01CBC90469946A246F0BDF2
:109F8000002502AB9881002E00D1D4E0F378002B9D
:109F9000EFD102AA94460E236344301C0EA91A1C6A
:109FA000FFF7C6FC0028E5D102AB9B7B0EAA02A9F5
:109FB000097B281CFFF7FAFBDCE70220012706AD2E
:109FC000E854581C02339BB280B22F54EA548BB22F
:109FD00002AA93816268002A0FD01078DA1C1F2A27
:109FE000C5D802210A2706ADE954591C02339BB299
:109FF00089B26F54E85402AB9A812389002B00D0B8
:10A000009EE0238A002B00D00AE1238B002B00D096
:10A0100025E1236A002B43D002AA92890C20911DCE
:10A020001F29A7D81888824655460720052DA1D993
:10A03000D24D5544ADB2AC46D14DA846AC4599D9A8
:10A040005D88A946052D00D894E7CC4D6F46AC46F7
:10A05000CC446546FD81FD89454500D88AE7C94D58
:10A06000AA4504D0A94502D0CA4500D982E70520F7
:10A07000122706ADA854501C80B22F54901C80B2F9
:10A0800002AFB8811F88281807703F0A4770043252
:10A090005B8892B2AD182B701B0A6B7002AB998172
:10A0A000676A002F2FD0BB880C20991C02AB9B89BC
:10A0B0009A1C55181F2D00D95CE7FE2900D959E7D5
:10A0C00006AD0131E954591C89B2F330685492B29B
:10A0D00002A98A813988AA180433117098B2090A32
:10A0E00002AB51709881BA88002A0CD0B968002957
:10A0F00000D13EE7281800F091FE02ABBA889B8998
:10A10000D31802AA93812C23E15C002900D0C5E07A
:10A1100006AD2378002B00D135E7201C291C05AAA9
:10A120001F23FFF74BFB002800D12CE722E7002775
:10A1300002210120C9E602ABDE810022002336E7BE
:10A1400005AB271C00931F23083706AD98460193E3
:10A15000381C022102222B1CFFF776FB002800D0BE
:10A1600008E705AB00934346381C019306211022F3
:10A170002B1CFFF769FB002800D0FBE641E7093301
:10A180000C201F2B00D9F5E60EA8FFF70DFB0028C9
:10A1900000D0EFE6082202AB9B8906ADEA545A1CB8
:10A1A000023398B21B2102AB9C4692B2A9541631DD
:10A1B000988161440622281800F030FE302002AB5E
:10A1C00002A99B89091809789A1D92B2002900D02A
:10A1D00001210733A9549BB202AA9381BDE604333F
:10A1E0000C201F2B00D9C5E60EA8FFF7E1FA0028C6
:10A1F00000D0BFE60322192102AB9B8906ADEA54C9
:10A200005A1C92B2A95402AA118E9A1C92B2AD188D
:10A21000043329709BB2090A02AA69709381A0E6EF
:10A2200005AB271C00931F23103706AD98460193FA
:10A23000381C032102222B1CFFF706FB002800D04C
:10A2400098E605AB00934346381C01930721102282
:10A250002B1CFFF7F9FA002800D08BE6D5E605ABFA
:10A26000271C00931F23183706AD98460193381C0E
:10A27000142102222B1CFFF7E7FA002800D079E610
:10A2800005AB00934346381C0193152110222B1C6B
:10A29000FFF7DAFA002800D06CE6BAE6A76A002FCA
:10A2A00000D166E6BB880233FE2B00D95FE602AA26
:10A2B000908900229046163291461632924606AD9B
:10A2C0004A4601332B54431C9BB2EA54831C9BB275
:10A2D00002AA93813A88EB181A700430120A5A7055
:10A2E00080B202AB9881BA88002A0FD0B9680029E1
:10A2F00000D13EE6281800F091FD02AB9B89B8889A
:10A30000C01880B202AB98815346E15C43460133EA
:10A31000DBB298468B4200D3FBE643465F00A36A5C
:10A3200047449C46BF006744BB880233FE2BC7D915
:10A330000C201FE602201C27591C06AD89B2E854E8
:10A340006F54191889B282420CD010D9032A0CD04C
:10A35000042A00D00DE603226A5403339BB202AAFA
:10A360009381F5E501226A54F7E76854F5E7012A7D
:10A3700000D0FEE500226D182A70EEE77FF3FFFFA4
:10A380007DF30000FFFF000073DF7047F8B5051C88
:10A390000E20002D00D17DE0002A00D17AE00020BF
:10A3A0000F1C3D4908703D490B6006993C4B1960F4
:10A3B0003C490B1C13CA13C313CA13C313CA13C3D8
:10A3C000002107223848FDF7F3FE384B384A394E52
:10A3D0001A60394A00219A60301C3822FDF7E8FEE5
:10A3E0002B782A1C3370AB781032B370EB78F37093
:10A3F0006B787370331C103303CA03C3331C103AD9
:10A40000083303CA03C3331C0832183303CA03C317
:10A410006B6A002B11D0294B294C7362696A9C60CE
:10A420000A881A8088889880002806D000238A68C5
:10A43000D25CE25401338342F9D1AB6A002B14D0D1
:10A44000204B2148B362A96A98608C889C800A8856
:10A450001A800023002C05D08A68D25CC2540133D4
:10A46000A342F9D12C23EA5CF2542B6A002B06D0CC
:10A47000164B33622A6A5188598012881A806B6899
:10A48000002B03D0124B73606B687360301C391C57
:10A49000FFF7F6FCF8BDC046EC2700201C27002083
:10A4A000442700205027002048270020982700201C
:10A4B00074270020D8260020CC2700201027002059
:10A4C00020270020F4270020A8270020F0270020C4
:10A4D00094270020F0B50024A34D89B0287001A86E
:10A4E0000194FFF74DF9082809D0002805D1019BF8
:10A4F000002B05D001229D4B1A7009B0F0BD0194CC
:10A500009B4F0021381C0722FDF752FE994E7378AD
:10A51000002B58D02B78012B05D0B278002A00D11F
:10A52000FCE0022B0FD1944A1268002A00D106E108
:10A530000121924B0820197090472B78012B00D1F4
:10A540008DE0022B49D0327B002A01D1032B65D04C
:10A55000327E002A01D1042B65D0874A1268002A76
:10A5600003D0033B012B00D899E00022844B1A70E2
:10A5700002AC1822201C0021FDF71AFE00232A78C5
:10A58000237063602372E360022A00D1BCE04FD9DC
:10A59000032A00D1A5E0042A00D09FE0B38B2382D8
:10A5A000338C6382774B1A79002A00D1BCE0327871
:10A5B000002A04D0744A1278002A00D1C2E0042292
:10A5C000724B1A703CE0B378002BB6D02B78022B7C
:10A5D000A9D0012BB7D102232B70B378002B17D051
:10A5E0007B78002B00D0A8E0BB78002B00D0A4E043
:10A5F000FB78002B00D0A0E03B79002B00D09CE042
:10A600007B79002B00D098E0BB79002B00D094E040
:10A6100003232B70337B002B00D083E004232B70AB
:10A62000337E002B36D10023584A2B7013709CE7E1
:10A63000012A53D163822382544B676022701A70BF
:10A64000201CFFF7A1FE002800D056E74A4B1B68EC
:10A65000002B02D04D4A1078984700204DE77278C1
:10A66000002AB8D07A78002A00D076E7BA78002A93
:10A6700000D072E7FA78002A00D06EE73A79002A13
:10A6800000D06AE77A79002A00D066E7BA79002A12
:10A69000A1D062E7384B1A68002A00D165E7337809
:10A6A000002B00D161E7384B1B78002B00D05CE712
:10A6B0000121334B07201970904759E7E3600423C9
:10A6C0003348023200212272C370FFF7D9FB002801
:10A6D00000D012E705222D4B1A702A78002AB5D037
:10A6E000AEE7B38A6382338A2382264B1A79002A23
:10A6F0001FD03278002A03D0234A1278002ADDD0F6
:10A700000322224B1A709BE7012323703389676071
:10A710006382736823821D4B1A7091E7022B00D06D
:10A7200011E775E7032318E71A7B002A00D03EE7FC
:10A7300045E71A7B002ADCD1E2E702230DE70F4947
:10A740000A70FBE6E3600423114802320021227202
:10A75000C370FFF795FB002800D0CEE606220B4B16
:10A760001A702A78BAE7C046EC270020ED270020AF
:10A7700048270020502700201C270020C827002041
:10A78000C92700209827002040270020002800200B
:10A79000D826002075DF704776DF70477ADF704774
:10A7A0007BDF704710B5184B82B01888174B984262
:10A7B00014D0174A174C13780133DBB21370217B86
:10A7C00099420DD200231370237C002B12D16369B0
:10A7D000002B03D0002201A80270984702B010BDE0
:10A7E0000D49FFF7D7FF0028F8D0A369002BF5D05B
:10A7F0009847F3E73B21FFF7CFFF0028E7D0A36995
:10A80000002BE4D09847E2E74C280020FFFF00002F
:10A810000C280020102800205028002030B51B4BA9
:10A820001B4A5B88118883B099420FD852889A429C
:10A830000CD3184B5B69002B03D0012201A80270D6
:10A840009847154C0023237003B030BD124C237879
:10A85000002B08D00F4B5B69002BF3D0002201A81E
:10A8600002709847EEE70D4B0A4D1B78002B0BD07A
:10A87000A9680B480022FEF783FE0028E2D0AB69EE
:10A88000002BDFD09847DDE76968F2E70428002055
:10A890005028002010280020012800200C2800202B
:10A8A0002C280020164938B5021C0B1C32CA32C3B2
:10A8B00032CA32C312681A600022124B01681A7041
:10A8C000002916D0104C0832201C00F0A7FA201CDA
:10A8D000FFF764FF00280BD101220C4B52421A8073
:10A8E00000220B4B0B481A7000210B4AFEF72EFE7C
:10A8F00038BD0548FFF754FF0028EDD0F8E7C04603
:10A900001028002001280020502800204C2800207A
:10A910000C28002090AE0100A5A7010010B5038807
:10A92000112B35D021D9122B17D0502B1CD1214CF3
:10A93000C288E3899A4217D1C38B022B14D11E33EC
:10A94000C35CDB070ED41C48FEF798FE00280BD032
:10A95000A369002B08D0984706E0811D08221748FC
:10A9600000F05CFAFFF75AFF10BD102BFCD1011C60
:10A970008288134B16311A801048082200F04EFAD4
:10A980000022104B1A700B4BDB89002BECD1E9E74E
:10A9900001220B4B52421A8000220A4B06481A70C1
:10A9A000FEF76CFE0028DFD0024B9B69002BDBD04A
:10A9B0009847D9E7102800202C28002004280020E0
:10A9C0004C2800200C2800201F4B1B78012B00D0A6
:10A9D00070471E4B1B681B07FAD1F0221C4B1B68EB
:10A9E000134018D11B4B1B6813421AD0174B1B681E
:10A9F0001B07EDD1F022164B1B681340402BE7D10B
:10AA0000144B1B681342E3D1C12380220121DB00D8
:10AA1000D205D150DCE7102B0FD10E4B1B6813422F
:10AA2000E8D10D4A0D4B1A6080220D4B12021A60BC
:10AA3000054B1B78012BD9D0CAE7302BDAD1054B57
:10AA40001B681342D6D1ECE7E00F00F0E40F00F0F2
:10AA5000E80F00F0EC0F00F0DFFF07C00405004036
:10AA6000186C00402EDF704751DF704710DF7047D1
:10AA700061DF704708B5081C111C00E000BF08BD6D
:10AA8000F0B557464E464546E0B4314B314E1D6851
:10AA900099466B425D41304BB2461C689846634212
:10AAA0005C412E4F82B0EDB2E4B2002D08D0002CF4
:10AAB00027D002B01CBC90469946A246F0BD0124A6
:10AAC00001A8FFF7D1FF052831D000282AD00021A6
:10AAD0000022FDF7E5FD002CF1D16A461D4B01A9CE
:10AAE0001B8893801D4B1C68201CFFF7C1FF0528A5
:10AAF000E5D0002810D000210022FDF7D1FD002470
:10AB0000D3E73C68338801A9201C0B80FFF7B0FF16
:10AB10000528CED00028EED14346201C1B6898475C
:10AB20000024C2E74B4601981B689847D3E7002CE6
:10AB3000BFD153466A461B8801A99380074B012564
:10AB40001C68201CFFF794FF0528D2D1B1E7C0464E
:10AB5000602800205A280020642800205C2800205B
:10AB600038B5041C0720002901D08D0700D038BD5E
:10AB7000094801600949201C0A80094A09491360F3
:10AB8000FFF774FF0028F2D10122074B16301A702C
:10AB9000FFF768FFEBE7C0465C2800205A2800203A
:10ABA0006828002075AA010058280020002803D03A
:10ABB000024B1860002070470E20FCE7642800203C
:10ABC00008B50A4B1B68002B08D09847002800D115
:10ABD00008BD00210022FDF763FDF9E7044B1B7857
:10ABE000002BF5D0FFF74CFFF2E7C04668280020A5
:10ABF00058280020602130B5456802786B01194063
:10AC00000323134019431C23427892001A400B1C63
:10AC10001343C02292022A4000D01343084A094835
:10AC20000949145821401150A0210024C900545052
:10AC3000FF211458090221400B43135030BDC04678
:10AC40000070004004050000FF00FFFF30B512490E
:10AC5000124C134A0B59050213402B430B51002889
:10AC600016D0A0230122DB00CA50012380200A4A0B
:10AC70004000136013580849002BFBD080230022AA
:10AC80005B00CA50A123DB00C85801234B6030BDD4
:10AC9000A023DB00C850E8E7007000400405000076
:10ACA000FF00FFFF03210A4802680A4302600948C7
:10ACB00002680A4302600849084A094B9B1A03DDEF
:10ACC000043BC858D050FBDC064880470648004784
:10ACD00024050040540500409CAE010000200020E7
:10ACE00068200020C9A90100C1800100FEE7FEE73D
:10ACF000FEE7FEE7FEE7FEE7002243088B4274D33F
:10AD000003098B425FD3030A8B4244D3030B8B426C
:10AD100028D3030C8B420DD3FF22090212BA030C75
:10AD20008B4202D31212090265D0030B8B4219D356
:10AD300000E0090AC30B8B4201D3CB03C01A524176
:10AD4000830B8B4201D38B03C01A5241430B8B42BE
:10AD500001D34B03C01A5241030B8B4201D30B03A7
:10AD6000C01A5241C30A8B4201D3CB02C01A5241CE
:10AD7000830A8B4201D38B02C01A5241430A8B4291
:10AD800001D34B02C01A5241030A8B4201D30B027A
:10AD9000C01A5241CDD2C3098B4201D3CB01C01A94
:10ADA000524183098B4201D38B01C01A524143099E
:10ADB0008B4201D34B01C01A524103098B4201D38C
:10ADC0000B01C01A5241C3088B4201D3CB00C01AF9
:10ADD000524183088B4201D38B00C01A5241430871
:10ADE0008B4201D34B00C01A5241411A00D2014696
:10ADF000524110467047FFE701B5002000F00CF803
:10AE000002BDC0460029F7D003B5FFF775FF0EBCA1
:10AE10004243891A1847C0467047C046002310B500
:10AE2000934203D0CC5CC4540133F9E710BD002336
:10AE3000C25C0133002AFBD1581E7047F8B5C046EA
:10AE4000F8BC08BC9E467047F8B5C046F8BC08BCC4
:10AE50009E46704743000000002000200918D0DE05
:10AE6000D0DA000088200020682000204672656447
:10AE7000204C616273203B2900000000426C756524
:10AE800020506C616E74000002020000000000009F
:04AE90002C2800204A
:08AE94002CD2FF7F0100000039
:10AE9C0000000000000000000000000000000000A6
:10AEAC000000000000000000000000000000000096
:10AEBC0054AE010000000000000000000000000083
:10AECC000000000000000000000000000000000076
:10AEDC000000000000000000000000000000000066
:10AEEC000000000000000000000000000000000056
:08AEFC001E0000000A1801000D
:040000031000ACA598
:00000001FF
